:020000040000fa
:080000000002040000000000f2
:020000040000fa
:10040000ef492100807f22000001880000000000e9
:100410000a00070011000700000020000000e000b3
:100420000200320000000200000000008a7e02008c
:10043000000000000040da000000fe004440a90077
:10044000000422000000e000030032000000200051
:10045000a00188004440a80000000600604a2a006d
:10046000010020001600370062004000e0804800d4
:10047000910188009001ba0062004000e0804800cd
:10048000910188009002ba0062004000e0804800bc
:100490000002eb006028e10005003a008301e9005a
:1004a00007003300038009000059eb000400370007
:1004b0006128e100010032000082eb000500070026
:1004c000910188001001ba000200e000e6ff3a0046
:1004d0000000050091018800800278006200400061
:1004e000e08048003559ba008301e9000800320075
:1004f0002559ba008301e900050032000400e0003c
:10050000f4ff320015d9ba008301e900f1ff3a0087
:1005100000000600369f040000000000fa8a040074
:1005200000000000e88c040000000000c28d040000
:10053000000000000a8e040000000000468e040047
:10054000000000006e8e0400000000008ca4040077
:1005500000000000f275040000000000b8a80400cc
:1005600000000000de9b040000000000fe9004007c
:1005700000000000084f040000000000da4f0400f3
:10058000000000001c510400000000002452040080
:1005900000000000f29b040000000000e49b040047
:1005a00000000000a89a040000000000d8710400b8
:1005b00000000000b49a0400000000004897040006
:1005c00000000000ac640400000000009e64040011
:1005d00000000000a664040000000000cca6040097
:1005e0000000000014a9040000000000b08a04000c
:1005f00000000000ea8a040000000000a08a040055
:1006000000000000848b040000000000b88c04008f
:1006100000000000848c040000000000e48b040053
:1006200000000000328e040000000000ee8d040087
:10063000000000003c8e040000000000488f040011
:1006400000000000b890040000000000c890040002
:1006500000000000a490040000000000548f04007b
:1006600000000000628f040000000000b68f04004c
:1006700000000000d490040000000000e29004009c
:10068000000000007087040000000000a68904003c
:10069000000000009ca204000000000022a404004e
:1006a0000000000050a4040000000000d803040073
:1006b0000000000080007800010037000000e80022
:1006c0001004e000fdff3a000100500000000600a9
:1006d00000037800800178000002eb000100370081
:1006e0008059780084025100820f520009003200c4
:1006f00064c078000402e8000004e000f8ff3a005b
:10070000830078008058eb0005804100808f500006
:10071000fcff3a0006007800000006008001eb00b4
:1007200002003700817178008301e800828f510058
:10073000fcff3a000000060080017800000178000c
:10074000010037000201e8001204e000fdff3a005a
:10075000020037000201e8008100e8001140780043
:10076000004978000004e000faff3a000300780036
:100770000000060080017800000178003140780018
:10078000005978000004e000fcff3a000300780004
:10079000000006008001eb000200370061f07900e4
:1007a0008301e800828f5100fcff3a000000060040
:1007b000881f780002047800f6ff07000800400058
:1007c0004f047800000006000000fa00881f78003f
:1007d000000478003fb99700ea8157008000780054
:1007e000803d2000e5000700800078000000e00068
:1007f000020035000040eb0000f4780001007800b2
:100800004f0478000080fa00000006000400370062
:100810000204e00001003a00000005000000e800ca
:1008200010417800814f5100f9ff3a0000000600a6
:100830002600fa00889fbe008a9fbe008c9fbe00e3
:1008400090b79f00010478000206be008004780083
:100850007e80570082010700e80560000030a1009b
:10086000e10f50003f003a0060fd2f000f054000ef
:100870009fb09700240020008a01780008017800ca
:1008800009007800fb010700800478006000b800d0
:100890006011b8000900e00029003200424cdd0080
:1008a000080045001000be009c0e0700e0b79f0046
:1008b000f1b79f0082bf9f0093bf9f006404540064
:1008c0000805450009047800e944210015003700b7
:1008d0001a00be00e00f5000e08f58000f003200f9
:1008e0008e0e07003902be002903be008a0c0700e5
:1008f0000002be000203be006fb09700ffb0970079
:100900000fb997009fb99700f80c0700e0b79f0058
:10091000f1b79f0082bf9f0093bf9f00e88444000f
:10092000640555000804e9004240a900e8ff3c00c6
:100930006fb09700ffb097000fb997009fb997006d
:10094000f0a79f0081af9f0092af9f00a3af9f00d1
:1009500061fd2f000f80400030024600a0824e0053
:1009600042003700e20f500046003a0062fd2f00bf
:100970000f0541009fb09700000278008a017800bf
:1009800008017800090078009c02070080047800c4
:100990006000b8006011b8000900e00029003200d2
:1009a000424cdd00080045001000be005b0e070051
:1009b000a0b79f00b1b79f00c2b79f00d3b79f00f9
:1009c000640454000805450009047800e943210047
:1009d000150037001a00be00e00f5000e08f5800ed
:1009e0000f0032004d0e07003902be002903be0081
:1009f000490c07000002be000203be002fb09700a2
:100a0000bfb097004fb19700dfb19700b70c070058
:100a1000a0b79f00b1b79f00c2b79f00d3b79f0098
:100a2000e8844400640555000804e9004240a90038
:100a3000e8ff3c002fb09700bfb097004fb1970080
:100a4000dfb19700f0a79f0081af9f0092af9f009a
:100a5000a3af9f003fa99700cfa99700e0fc2f000c
:100a60000f0040005a0307000c02be007fa0970051
:100a70008fa897001fa99700afa99700e703070069
:100a800013003700e30f500004003a006000b80084
:100a90000200200003ff270006003700e40f50008b
:100aa00009003a00f0ff2f00f1ff2f00f2ff2f00a6
:100ab000f3ff2700f0a79f0081af9f0092af9f0038
:100ac000a3af9f00060037006000b8006011b800b7
:100ad000f0a79f0081af9f0092af9f00a3af9f0040
:100ae0007fa097008fa897001fa99700afa9970034
:100af0000b00e0000100320003f0a2004f06be0030
:100b00004f05be004f04be000080fa000000060042
:100b10008001eb0010417800814f510001003a0044
:100b2000800178000204e000020032000000e800ca
:100b3000f8ff37000300780000000600800178000d
:100b4000010037008301e8001304e000fdff3a00d4
:100b50008002eb000100370084597800828f520038
:100b60000400320065c278008502e8000404e00059
:100b7000f9ff3a008049eb00000006006200fa002d
:100b8000889fbe008a9fbe000004be000205780058
:100b90008300780060f92f000f0040004204070036
:100ba00088979f0099979f000000eb00a09f9f00ef
:100bb0009a4578000b80fb000000ea00cf04de00bd
:100bc00050c2b30080cf5500020032000904780003
:100bd000010037000904e9000800e0000b003400c0
:100be0001f909700080178008a0078008f91970085
:100bf0000300010090979f000000e0009300320086
:100c00002f98970000004400a09f9f000905450011
:100c100050c2b30080cf5500040032000b04e00046
:100c2000e3ff3a002f989700890037000000eb009f
:100c3000809f9f00f0979f00e0979f00d0979f00b4
:100c4000c0979f00b0979f00c09f9f00090037008a
:100c5000a04821000080500000004000e147210032
:100c6000e10078004f98970001007000c09f9f003e
:100c70000a05e8001a4478008800fb00a04821001b
:100c8000e2fe0700800078000000e000f0ff3a007c
:100c9000a0c2b300804f54000e003a00bf889700f6
:100ca0000180e900b08f9f0010007800b09f9f0086
:100cb0000000e00005003d000000ea00b09f9f003a
:100cc0004f9897000020a000c09f9f000a05e800f1
:100cd00010003700b19f9f0009003700bf989700b0
:100ce000f0ff2700808f5000040032006a08b9002e
:100cf0000000410003004000b09f9f000a05e8008b
:100d00001a01fb0003fd2f0003004100e90f500012
:100d1000f2ff3600e0c2b3009a4f10000400320028
:100d20000080eb00909f9f008a0478001c00370031
:100d30008a04e800a0c2b300994f100007003a00ef
:100d4000bf8897000180e900b08f9f0010007800f5
:100d5000909f9f008a84e800110037000000eb009c
:100d6000909f9f00090037009f989700f0ff270091
:100d7000808f5000040032006a08b9000000410072
:100d800003004000909f9f008904e8001901fb00c8
:100d900003fd2f0003004100e90f5000f2ff360071
:100da000194478008800fb000049210097fe0700e5
:100db0000000e00002003a00004478000100370023
:100dc0008904e800a87f9f0080c6b300804f5400cc
:100dd00004003a00994f14000a003a00664050009f
:100de00006003700c0c6b300804f540005003a002b
:100df000994f140003003a0065404000a07f9f0017
:100e00008904e8000905e800cbfb2f008f85450029
:100e10001901fb0060f92f000f0040000084e8007a
:100e20008b01780080007800080078006d040700ce
:100e30000000e00005003a008b0078000800780010
:100e40009e0307000000e00059ff3d000080eb001a
:100e50004f05be004f04be000080fa0000000600ef
:100e6000889fbe008a9fbe008c1f78000006780015
:100e700081057800100578000a0478000100370029
:100e80000804e800984478000900fb00c805070042
:100e9000800078000000e000f9ff3a00d0c2b30003
:100ea00080cf540003003a000804e80082002000cc
:100eb00005003700b0c2b30080cf540001003a00f3
:100ec0000804e8000101780098407800e5c6b30006
:100ed00085cf500003003200e3c4b30083cf50003d
:100ee00022003a009840900010c6b30080cf500016
:100ef0000300320010c4b30080cf500050003a000d
:100f0000a840900085cf500003003200e0c4b30039
:100f100080cf50004a003a006305440080c2b3000d
:100f20009a4f1000020032000a04780009003700ce
:100f30000a047800d84478000900fb00a4050700e3
:100f40000000e000fbff3a00f0c5b30080cf540082
:100f5000f8ff32004200200090c2b300984f10000a
:100f600038003a000805e8003600370094c6b300a0
:100f700084cf50000300320090c4b30080cf5000f3
:100f800034003a0018409000854f500002003200b3
:100f9000834f50002a003a00a840900060c6b3007a
:100fa00080cf50000300320060c4b30080cf5000f7
:100fb00023003a00630544003200b3009a407800f1
:100fc00084cf50000300320090c4b30080cf5000a3
:100fd0001c003a0048409000854f5000020032004b
:100fe000834f500017003a00d840900084cf500043
:100ff0000300320090c4b30080cf500011003a00cb
:10100000e840900040c7b30080cf5000030032009a
:1010100040c5b30080cf50000a003a00f84090006d
:1010200090c7b30080cf50000300320090c5b300da
:1010300080cf500003003a006805440001003700eb
:101040000001eb000b00e000040032008a0d780084
:10105000020037000200a000080578000a0e7800a0
:10106000020078004f0678004f05be004f04be0016
:1010700000000600e4874700889fbe008a9fbe00ec
:101080008c9fbe008e1f780080bf9f008104780077
:1010900002077800030678006922b9000405780089
:1010a0008006eb00020037008904e8001d002000e4
:1010b00000c3b300994f1000fbff3200000eeb009d
:1010c0003c1678000c0478008005eb0028003700ff
:1010d0008a8f550016003d00920020001100090083
:1010e0008205d800010078000000e00003003a000b
:1010f00064044400000ceb0038147800a2002000c7
:10110000030020001800be00090a070019417800fa
:101110000201fb00cf91de00000041008180490008
:101120000003b1000180b100008cbe000d0037004b
:1011300010002000010020001c0e40005c964800ba
:101140008a8f550008003a0040c3b300994f100041
:10115000050034001000200001002000180c4000a1
:10116000589448008b05e8008904e8001d00200021
:10117000194178000200fb000003b100e90f5000a4
:10118000d3ff36008b0f550001003d008a05780023
:10119000e0c2b300804f510001003a008904e8002a
:1011a0000b00e00007003200290037000080eb0050
:1011b0008080eb001c0e40005c9648008904e8002b
:1011c0001d00200000c3b300994f1000f7ff32004c
:1011d0008005eb001e0037008a8f55001a003d0085
:1011e00092002000110009008205d800010078005b
:1011f0000000e00003003a0064044400000ceb002f
:1012000038147800a2002000030020001800be005f
:10121000c7090700194178000201fb00cf91de00e9
:1012200000004100818049000003b1000180b1004d
:10123000008cbe008b05e8000080eb008080eb0096
:101240001c0e40005c9648008904e8001d00200048
:101250001900fb000003b100e90f5000deff36006b
:1012600092002000110009008205d80001007800da
:101270000000e00017003200690510001802be00ef
:10128000e00f5200e08f5a00070032004250dd00ac
:10129000a1452100010040001001be000400be0075
:1012a000a3090700008cbe008a8545006150b90083
:1012b0001c1e10001c96180006003700e98555001a
:1012c00090002000010020001c0e40005c964800a9
:1012d00064045400e88f5500040034001800be0078
:1012e000e00f5000e08f5800f4ff32000d00e000e6
:1012f000330032009940780050c6b30080cf5000d0
:101300000300320050c4b30080cf50002c003a00dc
:101310008900e80011447800b2c2b300824f540043
:1013200005003200d0c2b300804f540002003200ea
:1013300002447800010037008980e80081047800c9
:101340008006eb006022b80011003700f00f2e007d
:10135000515f2000800f5200818f5a000a003c002c
:10136000a2002000030020000400be007009070056
:101370000a01fb00cf91de0000024100818249009a
:101380000403b1000580b1008904e8001d002000bd
:10139000194578000a00fb000003b100e90f500076
:1013a000eaff3600d0c2b300804f540002003a007a
:1013b00060021200e0821a001c0e42005c964a0095
:1013c0000e00e000040032000d00e00001003a00d1
:1013d0008fbc9700090f78009200200011000900cf
:1013e0008205d8004f0778004f06be004f05be00ab
:1013f0004f04be004f00b10000000600e887470020
:10140000889fbe008a9fbe008c9fbe008e1f780002
:1014100080bf9f00810478000207780003057800f0
:101420006722b900040678008006eb00020037004e
:101430008904e8001d00200000c3b300994f10008c
:10144000fbff3200000deb003a1578000a0478002b
:101450008005eb002c0037008c8f550019003d00f3
:1014600072002000811f7800110009008205d80059
:1014700001007800cf0078000000e00003003a008f
:1014800064044400000ceb00381478001801be001e
:101490004418dd00cc11de00830170004411dd0032
:1014a0004040210000805000e13e21006140780072
:1014b0000000fb00cf80de00001c410001944900c9
:1014c0000e00370012002000030020001a0d41001a
:1014d0005a9549008c8f550009003a004040210080
:1014e00000805000e13e210061407800e74f50004d
:1014f00003003400180c4100589449008b05e800a3
:101500008904e8001d0020009900fb006201200012
:10151000404021003c040700800078000000e0000b
:10152000cdff3a008b0f560001003d008c0578007e
:10153000e0c2b300994f100001003a008904e800ae
:101540000b00e000070032002c0037000080eb00a9
:101550008080eb001a0d40005a9548008904e8008d
:101560001d00200000c3b300994f1000f7ff3200a8
:101570008005eb00210037008c8f55001d003d00d9
:1015800072002000811f7800110009008205d80038
:1015900001007800cf0078000000e00003003a006e
:1015a00064044400000ceb00381478001801be00fd
:1015b0004418dd00cc11de00830170004411dd0011
:1015c0004040210000805000e13e21006140780051
:1015d0000000fb00cf80de00001c410001944900a8
:1015e0008b05e8000081eb008081eb001a0d4100c3
:1015f0005a9549008904e8001d0020009900fb006d
:101600006201200040402100ff03070080007800b5
:101610000000e000d8ff3a0072002000110009002d
:101620008205d800010078000000e00014003200bc
:10163000670010004202dd001801be000402e9004c
:10164000030033000201410083814900fbff3700a2
:10165000028cbe0080854500cf80de001a1d100080
:101660001a95180006003700e78555007000200025
:10167000010020001a0d40005a95480064045400ef
:10168000e68f5500040034001800be00e00f500043
:10169000e08f5800f4ff32001a00be004209dd005e
:1016a000ce01de00830171004201dd00e2b79f0040
:1016b000f3b79f00028dbe000d00e0003500320040
:1016c0009940780000c7b30080cf5000030032007b
:1016d00000c5b30080cf50002e003a008900e8001a
:1016e00011447800b2c2b300824f540005003200aa
:1016f000d0c2b300804f5400020032000244780090
:10170000010037008980e800810478008006eb0042
:101710006022b80011003700f00f2e00515f20004a
:10172000800f5200818f5a000a003c00a200200066
:10173000030020000400be007d0807000c01fb0030
:10174000cf91de0000024100818249000403b10014
:101750000580b1008904e8001d00200019467800ca
:101760000c00fb000003b100e90f5000eaff360057
:10177000d0c2b300804f540002003a006002120051
:10178000e0821a006fb09700ffb09700041d400080
:10179000059548000e00e000040032000d00e00056
:1017a00001003a008fbc9700090f780072002000fa
:1017b000110009008205d8004f0778004f06be00cf
:1017c0004f05be004f04be008f00b10000000600b0
:1017d000889fbe008a1f78008c9fbe00000478009e
:1017e0000206be00e6044000190178000200d000a5
:1017f0004505de008a007800f07f2000800f55004c
:101800000c003a006f00610065003a00280090006b
:101810000000e00062003a00180090000000e000c4
:101820005f003a00100020001800e0005d00320068
:101830005b0037000a00e00007003a00080078006b
:101840007b030700800078000000e0000200340005
:101850000a007800530037006108b9000c0140000d
:101860008d814800e07f2000800f5100e08f5900fb
:101870000d0034001900e00004003d006000b800d5
:101880000200200003ff2f00030037006000b800b3
:101890000200200003ff2700009cbe000294be004f
:1018a000100020003f003700e00f5100e08f59008a
:1018b00005003400f000280019006000c410dd00ad
:1018c000810c7000340037001900780001002800f6
:1018d000010360006f0060000040a000800c7800f1
:1018e00061015100e0815900c0fc2f00f1ff2f0081
:1018f000800f5100818f59000d003d00860c78004b
:101900000000eb002004980010049800000c780000
:10191000240037008880e800110c7800640044003f
:101920009008780019087800800ceb0070014100e5
:10193000f00f4100f7ff34008202ea001500320088
:101940008881e80070821200980078008508de0027
:10195000130078000400dd00008c70006401440076
:10196000930078008508de00120078000400dd0096
:1019700080897000920078008508de0019007800e8
:101980000400dd0000897000190078000500de0009
:10199000800c7800990c73000080eb000100370088
:1019a000200020004f06be004f0578004f04be0007
:1019b000000006000200fa00889fbe008a9fbe0059
:1019c0008c1f7800000678000404be000605be00e7
:1019d000800078006c805700610307003c02be0065
:1019e0002c03be000800be000a01be004a08070022
:1019f000009ebe000296be002fb99700cf91de0078
:101a00000c00780072ff07004f0678004f05be00fb
:101a10004f04be000080fa00000006001400fa0027
:101a2000889fbe008a9fbe008c1f780090b79f00e1
:101a3000a1b79f00b2b79f00c3b79f000405be00c7
:101a4000e00f5200e08f5a008e0032006022b80092
:101a50006033b8002c0a07000000e0008900320063
:101a6000e00f5500e08f5d0042003d00600515006d
:101a7000e0851d00dab79f00ebb79f006044b80017
:101a80000a0020000bff2300cc3221001100370098
:101a90005fb097000008a300070032003c02be00c0
:101aa0002c03be000800be000a01be001a08070091
:101ab0000004be000205be005fb19700efb19700c1
:101ac0008301d1000281d300d2b79f00e3b79f000a
:101ad000680646005fb09700efb09700e00f500037
:101ae000e08f580003003200c0362100800f5600fe
:101af000e7ff3a000802be000a03be006000b8001b
:101b00000200200003ff2300a90707000002be0017
:101b10000203be007e805700a6ff07000006780083
:101b20000000e00050003d005fb19700efb197006a
:101b3000e00f5100e08f5900520032000204be0055
:101b400034f42600c54a26008662200087ac2000b7
:101b50007e80570097ff0700000678000000e00035
:101b600041003d0061045400e0845c00410032000b
:101b7000f3ff3700e00f5500e08f5d003a003400be
:101b80006000b8000200200003ff2300f0b79f00b0
:101b900081bf9f0092bf9f00a3bf9f00c83221005a
:101ba0000a08a3000d0032003802be002803be0060
:101bb0007fb097008fb897001fb99700afb9970013
:101bc000d50707000002be000203be00f4b79f0065
:101bd00085bf9f0096bf9f00a7bf9f008b85d10048
:101be0000a85d300e00f5500e08f5d00040034004b
:101bf00068044400c0362100800f5400e8ff3a001a
:101c00007fb297008fba97001fbb9700afbb9700ba
:101c10007e80570067ff0700000678000000e000a4
:101c200011003d00e00f5500e08f5d00150034000d
:101c30000a04be00c4f32b0035f72700d6fd2400ac
:101c4000575127007e8057005aff07000006780092
:101c50000000e00004003d0061045400e0845c00ea
:101c600004003200f3ff3700000120000c00e00008
:101c700003003200e10f560002003a00800020000d
:101c8000e30207001fb09700afb097003fb1970085
:101c9000cfb197004f0678004f05be004f04be003d
:101ca0000080fa00000006000200fa00f1bf9f0069
:101cb000010878000080fa00000006000400fa0025
:101cc000889fbe008a9fbe008c1f780000047800a9
:101cd0000106780070089000f800900001005000a4
:101ce0008808900001005000980890000100500002
:101cf000a808900001005000b808900001005000b2
:101d0000c8089000810550000002220090bf9f008b
:101d100000032300a0bf9f00081090000028a3002c
:101d200018003a000b00e000160034008b04780025
:101d300009057800e28f5400020036002a002000d6
:101d4000020037000900e0000b003400580090004a
:101d5000c80190000a017800ee80570003000100de
:101d6000500498000000e0009600320068089000df
:101d700000004500600c98008a8454004240a9008d
:101d8000ebff3c00780190000200e0000b00340003
:101d900058009000c80190008c00780003000100fa
:101da000500498000000e0008600320068089000af
:101db000f800900001004000600c9800880c900032
:101dc0000900e0001500340009057800e28f540096
:101dd000020036002a002000020037000900e0005f
:101de0000b00340058009000c80190000a017800f0
:101df000ec80570003000100500498000000e00050
:101e0000700032006808900000004500600c9800e7
:101e10008a8454004240a900ebff3c00180990005e
:101e20000200e0000b003400e80090005800900031
:101e3000c801900003000100500498000000e00079
:101e4000600032006808900098089000010040008f
:101e5000600c9800a80c90000900e0001500340008
:101e600009057800e28f5400020036002a002000a5
:101e7000020037000900e0000b0034005800900019
:101e8000c80190000a017800ec80570003000100af
:101e9000500498000000e0004a00320068089000fa
:101ea00000004500600c98008a8454004240a9005c
:101eb000ebff3c00380990000200e0000d00340008
:101ec000e8009000180890008080400058009000c2
:101ed000c801900003000100500498000000e000d9
:101ee0003800320068089000b808900001004000f7
:101ef000600c9800c80c90000900e0001500340048
:101f000009057800e28f5400020036002a00200004
:101f1000020037000900e0000b0034005800900078
:101f2000c80190000a017800ec805700030001000e
:101f3000500498000000e000220032006808900081
:101f400000004500600c98008a8454004240a900bb
:101f5000ebff3c00081090000028a3001b0032009b
:101f60000b00e000190034008b04780009057800ac
:101f7000e28f5400020036002a00200002003700e1
:101f80000900e0000b00340058009000c8019000e8
:101f90000a017800ee805700030001005004980009
:101fa0000000e000070032006808900000004500d3
:101fb000600c98008a8454004240a9000300340059
:101fc000eaff37000080eb00010037000000eb0063
:101fd0004f0678004f05be004f04be000080fa0097
:101fe00000000600889fbe008a1f78000004780069
:101ff00001027800824478000305780070c6b300bf
:10200000804f510021003c0000c0e900804f51008a
:10201000de003d0072405000804f5100410132000f
:102020000d003c006c405000804f510054013c00ba
:1020300000c0e900804f5100d4003d0050c2b30001
:10204000804f51004b0132007c404000804f5100d6
:102050004b013a00cd00370010c6b300804f51004d
:10206000ca00320004003c0069405000804f51001b
:1020700043013a007200370030c6b300804f510070
:10208000180032000040e8000900370000c7b30024
:10209000804f51001401320008003c0000c0e900ec
:1020a000804f5100da00320065003c00654050006e
:1020b00080cf540032013a000f00370050c7b30000
:1020c000804f51005e00320063404000804f51005d
:1020d0005b00320065405000804f510028013a00fb
:1020e000100137009180e900010a78007800900023
:1020f0009171780028013700a8609000c0c6b30035
:1021000080cf50000a003a009400780064805000ac
:10211000000a78001000be004f89de00cf91de007b
:102120000002be000203780082037800130037002b
:1021300010c7b30080cf500003003200a0c6b30028
:1021400080cf500006003a0094007800688050006c
:10215000000a78003002be002003be0007003700ee
:102160001480e900000a780010007800000278006e
:10217000cfa2de000503780086037800049cbe0031
:102180000694be00a860900080c6b30080cf5000c7
:102190000e00320020c6b30080cf500005003a0088
:1021a0000400fb00cf80de0001017800820178008e
:1021b0000a00370040c7b30080cf50000300320050
:1021c0006640400080cf500006003a0004007800ce
:1021d000cf80de000101780082017800009cbe0003
:1021e0000294be003800be002801be00e00f50007f
:1021f000e08f5800e00f5900e08f590003003d00c8
:1022000078009000d1c2b3000a0037000810900097
:102210000018a3000300320078009000b1c2b300a0
:10222000040037000008a30053003200780090003b
:1022300001c2b300017578000000e8004d003700ce
:10224000a8609000c0c6b30080cf500006003a00de
:102250009400780064805000000a78001002be00ec
:102260006033b8001300370010c7b30080cf5000b0
:1022700003003200a0c6b30080cf500006003a0031
:102280009400780068805000000a78003002be0098
:102290002003be00070037001480e900000a780020
:1022a00010007800000278000500200006002000e1
:1022b00007002000049cbe000694be00a8609000a9
:1022c00080c6b30080cf50000e00320020c6b3009d
:1022d00080cf500005003a000480fb000100200080
:1022e00002002000030020000a00370040c7b300ae
:1022f00080cf5000030032006640400080cf500085
:1023000006003a00040078000100200002002000ce
:1023100003002000009cbe000294be000810900044
:102320000038a300140032003800be002801be00af
:10233000e00f5000e08f5800e00f5900e08f590087
:102340000d00320080c7b30080cf5400030032007c
:1023500080c5b30080cf540007003a007800900099
:1023600001c3b300017578008000e80009f578002a
:102370000080e8007004980078009000000045009c
:1023800060049800894078006300370014007800ea
:1023900068015000020a78003200be001201be003f
:1023a000009cbe000294be00380090000000e000d7
:1023b00003003d0078009000d1c2b3000a0037004e
:1023c000081090000018a30003003200780090006d
:1023d000b1c2b300040037000008a30005003200ba
:1023e0007800900001c2b300017578000000e80099
:1023f0007004980078009000000045006004980088
:102400008940780008007800c401070064003700a4
:10241000a8609000c0c6b30080cf500025003200f5
:102420000a003c006440500080cf50002800320079
:1024300000c0e80080cf5000140032006840500017
:1024400080cf500022003a000a00370040c7b30096
:1024500080cf50001e0032006640400080cf500008
:102460001b0032006940500080cf500018003a0035
:10247000060037001480e900000a78001000780098
:10248000485c900008487800450037001480e90057
:10249000000a78001002780068089000cf80de0003
:1024a0000101780082017800009abe000292be000d
:1024b0003b0037001480e900000a78001001780022
:1024c00068089000cf80de000089be00340037002d
:1024d0001480e900000a780010007800680c900071
:1024e000080878002e0037001180e9008008780085
:1024f00010007800cf80de000101780082017800b2
:10250000009cbe000294be007800900000004500d0
:102510006004980081c7b30008007800c700070076
:102520001f0037001480e900000a780010007800ce
:1025300060049800580990000200e00002003d008d
:102540005cf80700090037008000eb002e00070050
:10255000800078000000e000030032006800900076
:10256000008050000100370058089000100c9800bf
:102570000b003700780090000275780006003700e5
:1025800078009000800045000904e00001003a0056
:1025900059c2b300894878000000e8007004980030
:1025a0000000eb004f0578004f04be00000006005d
:1025b0006900e100040035006d00e1000300340013
:1025c0000002b1000100320000000500100005000b
:1025d0000003b1000b0035009000b100080034008a
:1025e0008000b100070035009001b1000400340004
:1025f0007000b100030035009001b10001003c0003
:1026000010000500000005008001eb000400370009
:102610008301e80090cf1000040032000000e800c1
:10262000828f5100faff3a000000eb000000060024
:1026300000027800e6024000150078000100280042
:10264000810360006f006000800a780012003a0089
:10265000240090000000e0000f003a0014009000f9
:102660000000e0000c003a00160020001400e0001a
:102670003800320008003700e4004200910a780078
:102680000480e8009008780014087800000aeb0045
:102690007003530001003700160020001500e00011
:1026a000f5ff320013003700640142008000400053
:1026b000120078004f00de00808a70008481e800fc
:1026c0009200780081804000130078004f00de0007
:1026d0000089700093007800818040001400780029
:1026e0004f00de008089700014007800000a40006e
:1026f0000603e90015007800ef0f5000eaff3600ee
:10270000100037000481e8009400d1001200780026
:102710004f00dd00008a7000e40042009201d10009
:10272000110078004f00dd00008971001101d10017
:10273000150078004f00dd0080087100950ad10077
:102740000603e80015007800ff0f5000edff3e0083
:10275000ef0a6000958a730006007800000006000a
:10276000889fbe00800478006684400000ff270038
:10277000180060004401de00f07f2000800f51004f
:102780000e003a00800ceb00180478006f00640023
:102790001c003a00210090000000e00019003a00ff
:1027a000110090000000e00016003a001000200028
:1027b0001100e00014003200120037000200e000b7
:1027c00005003c000100780099ff07000001780037
:1027d0000000e00008003c00f00028001800600045
:1027e00001fe2300010c700020c02f00800c41006e
:1027f0000080eb0004003700800ceb000000eb00d1
:1028000001003700200020004f04be000000060039
:102810008000780065006000030032001002200094
:1028200050998800000006007880600002003200a5
:10283000200220005099880000000600ef02b0003e
:10284000889fbe008a9fbe008c9fbe008e1f7800ae
:1028500000067800d0422100c0b79f0080c5b300b9
:1028600080cf500008003200c2412100c2b79f0053
:102870007740400080cf500003003a0083002000e2
:10288000b3b79f000a00370080c7b30080cf500065
:1028900005003200a4002000b4b79f0080c5b3003b
:1028a00080cf500002003a0000012000b0b79f0026
:1028b0003c04be002c05be0040c6b30080cf5000d3
:1028c000030032006540400080cf50000b003a000a
:1028d000e00f5400e08f5c00e00f5d00e08f5d00d2
:1028e00006003d006000b8006011b8000804500008
:1028f000898458000a0559008b855900e00f54005f
:10290000e08f5c00e00f5d00e08f5d0004003a00a6
:102910005c0890008d0120000000e0000c003200f7
:10292000bfb0970001027800cfa2de000503780057
:10293000860378000800be000a01be006910070087
:102940004fb2970064407800d0df9f007d012000e7
:102950003fb0970000027800cfa2de0005037800a8
:10296000860378000800be000a01be00561007006a
:10297000009ebe000296be000d00e90061fc2f0023
:102980008f804000008740001e0037003fb1970055
:1029900002047800cfc4de00090578008a057800bb
:1029a0000802be000a03be007fa897008fb0970000
:1029b0001fb19700afb197004e100700d0b79f002e
:1029c000e1b79f00f2b79f0083bf9f008d06e9002b
:1029d0000802be000a03be00cc1007007faa9700c1
:1029e00000005200cfb09700615778005fb09700a9
:1029f000efb097007fb197008fb99700009ebe009f
:102a00000296be003c00be002c01be00f0af9f004d
:102a100081b79f0092b79f00a3b79f00e00f5000bf
:102a2000e08f5800e00f5900e08f59000200340099
:102a30000d00e000d5ff3c00bfb09700e88f5000cc
:102a400010003a000c1090000038a3000d00320076
:102a5000f78f560006003e0062fc2f000f01410078
:102a60008d00410000c3b300914f100005003200fb
:102a70008d06e90000c3b30063fc2f008f81410085
:102a800080f17e0078811600120e98006c00900094
:102a900063fc2f008f8141008d8041003df70700ce
:102aa0001c0990005c089000800f510006003d005a
:102ab00002005000000e98000c1090000040a10091
:102ac000001698000f0037000000e0000d003d00e8
:102ad0000c10900074006000f00f500009003a00e4
:102ae0007c089000fc009000010050008c089000d1
:102af00001005000020050004240a90001003400d3
:102b0000000e98004f0778004f06be004f05be002c
:102b10004f04be00ef02b100000006008f04b000b9
:102b2000889fbe008a9fbe008c9fbe008e1f7800cb
:102b3000f0b79f0081f79f005001be004000be002b
:102b4000f0979f00819f9f00929f9f00a39f9f00ef
:102b500010c6b3000ff19700804f510016003200ed
:102b600010c4b300804f510013003200ffb1970032
:102b7000530890000000e00003003d0060002000ca
:102b8000d00998000c0037000000e0000a003a006d
:102b900070c6b3000ff29700804f5200030032005e
:102ba00070c4b300804f520003003a0010002000b0
:102bb000ffb29700d00a9800ffb09700c0fa2f002c
:102bc0000f004000e6fe070080017800e20f500091
:102bd00015003a0030002000ffb0970090089800e0
:102be00010c6b3000ff19700804f51000a00320069
:102bf00064404000804f5100070032000040e80070
:102c0000804f510004003200c13b21000040e80029
:102c1000804f510001003a00013c2100ffb19700b4
:102c200063009000160037000000e0001800340038
:102c3000300020007fb29700100a980010c6b30041
:102c40008ff2970080cf52000a00320064404000ab
:102c500080cf5200070032000040e80080cf5200d1
:102c600004003200413c21000040e80080cf5200c7
:102c700001003a00813c21007fb197006200900082
:102c8000315878003158780011487800c601370073
:102c900014c6b3008ff2970084cf520003003200b5
:102ca00010c4b30080cf520013003a007fb09700e9
:102cb000600190008200780000c3b3008058780063
:102cc000ffb29700e102980080c7b3008ff297002f
:102cd00084cf52000100320080c5b30080487800e4
:102ce0000280e800ffb09700e000980071009000bb
:102cf0000080e800f00098000300e00005003a00c2
:102d0000e3979f0064fb2f000f0142000307780048
:102d1000a0013700c53c2100e5b79f0010c6b300f5
:102d20008ff0970080cf50000500320010c4b30030
:102d300080cf5000a7003a00d23d2100e2b79f00ab
:102d4000ffb19700530890001e0220000000e00031
:102d5000010035000007e8000e02e800d4b79f002c
:102d60006022b8006033b8007f9097008f9897007a
:102d70001f999700af99970063050700ffb0970070
:102d80003102be002103be000000e00004003d004f
:102d90000400be000601be0003f0a20002003700de
:102da0000400be000601be00f0979f00819f9f00b7
:102db000929f9f00a39f9f006f9197006401510015
:102dc000e2979f00c3fa2f008f8141006a80410083
:102dd0000048eb006b824100c4b79f003100370010
:102de000c201200003002000e5fa2f000f804200fe
:102df00077fa07007f9497008f9c97001f9d97009c
:102e0000af9d97000800be000a01be0048050700fc
:102e10000006be005fb1970067015100d2b79f0066
:102e20004240a9000a0034003c0507000002be0031
:102e30000203be000800be000a01be00da0207005d
:102e4000f0979f00819f9f00929f9f00a39f9f00ec
:102e5000cfb1970067804100710020000500370066
:102e60006f6066004c6add004466de000c0672008e
:102e7000c4eede00e00f5600e08f5e000500340077
:102e80008100e900e18f4000f5ff3a0001003700c2
:102e90000060eb008100e900fdff3b00670040009f
:102ea000c0b79f00dfb297000500e00009003400c2
:102eb0006022b8006033b8007f9097008f98970029
:102ec0001f999700af999700590507000000e0008f
:102ed000c3ff3c0060fb2f008f0040004fb1970004
:102ee000010051000000e9008e0f500001003d007c
:102ef000000778000e00e00003003d0073fb2f0088
:102f00000f8141002c003700800f570005003d0065
:102f10000e80400010409000f3c0b300e74f500017
:102f200001003c008041eb00c4fa2f000f02420078
:102f30000e0042006a0040008e0078000100370059
:102f40000000e9008100e90010417800834f510042
:102f5000fbff32000107e800efcf510001003a000b
:102f60000248e8000100e0000300350075fb2f0077
:102f70000f814200060037000e07e8006f909700af
:102f800064004000e0979f0061fb2f000f8140002c
:102f90008e0041008e017800030037001100fb0015
:102fa0006fb29700e44878008301e9008100e900ee
:102fb0000300e000f9ff3d00ffb2970055089000c4
:102fc0000000e000f3003d000e00e900d00a980088
:102fd000f00037007f9497008f9c97001f9d97000b
:102fe000af9d97006022b8006033b8000800be00b3
:102ff0000a01be00c40407000000e00005003d0017
:103000000bf0a200f8979f00899f9f009a9f9f0056
:10301000ab9f9f006f909700725927000280b90004
:10302000026a280013002000ed040700e4005000ad
:10303000e1979f0015003b00e3801000c0ff2f00c8
:10304000008460000800ea00e0979f007f909700ee
:103050008f9897001f999700af99970049372100e3
:10306000070037000808a300030032003902be0041
:103070002903be00a80207000884d100e8844400a8
:103080000800e000f7ff3c001b0037000100e000f3
:103090001d003400c0ff2f0000806000e0979f00fb
:1030a000000478006000b8000200200003ff230045
:1030b00049372100070037000808a3000300320049
:1030c0003902be002903be00930207000884d10024
:1030d000e88444000800e000f7ff3c000002be0066
:1030e0000203be007f9097008f9897001f9997006a
:1030f000af9997002e020700f0979f00819f9f00d5
:10310000929f9f00a39f9f00ffb0970051099000de
:1031100060c6b3008ff1970080cf510004003200e9
:103120006100200060c4b30080cf510002003a006b
:103130006f929700ea00420001074100f30f570029
:10314000010034003e01200000c3b300e0779f007f
:1031500075fb2f008f824200b5b79f003300370008
:103160000800be000a01be00710407000006be0090
:10317000680757004240a9000e00340067040700aa
:103180000002be000203be000800be000a01be002d
:10319000050207006022b80046782d007719240048
:1031a0005d020700f0979f00819f9f00929f9f0004
:1031b000a39f9f003fb09700680440008900200053
:1031c0000d003700a4002000050020000c01be0007
:1031d000e0fd2f000f004000790007007fa8970056
:1031e0008fb097001fb19700afb1970004c3b30031
:1031f000046441000006be00e00f5600e08f5e0050
:10320000060034008904e900e18f4400edff3a0034
:103210000200370000c3b300006478008904e900ad
:10322000fcff3b0068044400b8b79f000e00e000bc
:103230000b0034007f9497008f9c97001f9d970090
:10324000af9d97006022b8006033b8000800be0050
:103250000a01be00760407000000e000c0ff3c0049
:10326000c5fa2f008f8242006a804200bfb09700eb
:10327000008050008001e9006f919700e700410055
:103280006b814200010037000201e80000c3b30077
:10329000924f1000fcff320074fb2f000f00420021
:1032a0008080400082805000008041000202500077
:1032b000e1979f00ffb29700d509900060c6b30068
:1032c0008ff2970080cf52000300320060c4b30039
:1032d00080cf520002003a008100e8000a00370067
:1032e00050c6b3008ff0970080cf50000500320029
:1032f0008000eb0050c4b3008ff2970080cf5200e3
:1033000001003a0011002000018741008e0f520099
:1033100001003d00040778000e00e0001d003500ac
:10332000840f570005003d00e2407f0095c3b300c5
:1033300040c3b30080cf500001003c0005c3b30080
:103340000e0041008000e9008e0178000100370086
:103350008100e9008301e90011427800854f5200a5
:10336000fbff32000307e80090c3b30080cf520098
:1033700001003a008448e8000300e00005003d0039
:103380000201e9000e07e8006f9097000000e800d6
:10339000e0979f006f9297008e0178008ff0970062
:1033a0007fb09700230007004f0778004f06be004c
:1033b0004f05be004f04be008f04b10000000600a0
:1033c0000400fa00889fbe008a9fbe008c1f780010
:1033d0000006780092bf9f00a3bf9f000404be00b8
:1033e0000401be001fb89700afb89700fc030700a8
:1033f0000005be000001be000800be004c01070031
:103400001fb99700afb997000000510081805900a3
:1034100020069800310698000a8ebe000c00780045
:103420004f0678004f05be004f04be000080fa0032
:10343000000006000e00fa00889fbe008a9fbe00b2
:103440008c9fbe00000478000145780002067800d9
:1034500083047800840678000300e00002003c004a
:1034600019002000ac49210060c6b300804f550010
:103470000e00320060c4b300804f55000b003200d4
:1034800070c6b300804f55000300320070c4b30013
:10349000804f55009c003a00e48f460080003500c4
:1034a00058089000808f56007d003d008d05e80093
:1034b00060c6b300804f55001000320060c4b300f6
:1034c000804f55000d003200081090000038a30016
:1034d00004003a0058089000808f540001003d001d
:1034e000590c9800580890000b005000500c9800a0
:1034f00002003b000000eb00500c98000b00e000c5
:1035000027003c00180990006800900001c3b30038
:10351000017079008201e800130c980058089000af
:103520000000e00003003c00081090000038a300f9
:103530000500320068009000e1c2b30001f079009c
:103540000280e800100c9800d80890000b00ea00f8
:10355000808f500001003d008105ea000b00ea0069
:10356000200c980001804500500c9800890f5000f5
:1035700001003d0080047800390c9800680090003c
:103580009808900001004000090178008c00780044
:1035900080f4070058089000090050001a00370016
:1035a00098089000680090008b8f540018003d0030
:1035b00001004000090178008c00780075f40700d4
:1035c0001808900000814400120c980009805500f2
:1035d000200c9800580890000000e00003003c0018
:1035e000081090000038a30006003200e8009000a8
:1035f000e0c2b30080707900380890000000e80055
:10360000300c980058089000400c9800a600370035
:10361000010040000b0178008c0078005df4070089
:103620001808900000814500120c98008b8454000b
:10363000580890000000e00003003c0008109000d3
:103640000038a3000500320068009000e1c2b3001a
:10365000017079000200e800100c980058089000f2
:10366000890f500001003d00800478006800900040
:1036700098089000010040008b0046000901780086
:1036800044f407001808900000804400100c9800d3
:103690005808900009005000200c98008200370064
:1036a00070c6b300804f55000300320070c4b300f1
:1036b000804f550014003a0058089000808f540045
:1036c00004003d00081090000038a30001003a00fb
:1036d000590c9800580890000000e900500c980020
:1036e00002003b000000eb00500c980070c6b300d5
:1036f000804f550002003a005ac6b3000b00370055
:103700005ac4b3000900370010c6b300804f5500fb
:1037100002003a000ac7b3000400370010c4b30027
:10372000804f550001003a000ac5b3001809900007
:10373000680090003c7079008201e800130c98004a
:103740000c027800580890000000e00003003c00e4
:10375000081090000038a30017003200e800900025
:10376000e0c2b30080f079008280e800110c98007c
:10377000580890000000e0000f0034008904e900c0
:10378000890f500001003d0080047800680090001f
:10379000008040000901780084007800fdf30700f4
:1037a0001808900000804400100c98005808900001
:1037b00009005000200c98006800900098089000c4
:1037c000010040000086e8000a5878008000780078
:1037d0000d00e00004003500b0c2b300804878005e
:1037e0008c04780004003700d0c2b3008048780011
:1037f0008c0478008d06ea008005eb000a00370093
:10380000a20020008d007800708057003d00070066
:103810000fb897009fb897007a81550001f17f009b
:103820008b05e800800678000d00e000f4ff3c0006
:10383000e18f550009003c0050c6b300804f550091
:103840000300320050c4b300804f550003003a001b
:1038500000c3b300005e78008c0478000b00e00029
:10386000040032000b00e900fa805700008040009d
:103870000600370000c3b300805c78000500370005
:103880008b05e90002c3b300a05c41000b00e0001f
:10389000fbff3c0068009000980890000100400089
:1038a00000805400300c98000810900074006000f4
:1038b000f00f50000e003a00780090009808900039
:1038c00001004000a808900001004000b8089000e6
:1038d00001004000c8089000810040007808900076
:1038e000808f500002003d0001005000000c980045
:1038f0004f06be004f05be004f04be000080fa0018
:103900000000060002027800809fbe00110009003e
:103910008200d800000178004f00be0002a2b9006a
:103920008480500011009800020878000000060012
:10393000020ab900001bb9000200b8008100420071
:103940008100430000000600811f78000100e000b4
:1039500002003d0060001000e08018000300e0005d
:1039600002003d0060011100e081190072060700ad
:103970004f00e00002003b0060001000e0801800f3
:10398000000006000002eb00db0707000500320024
:1039900007ff2300060020006022b80003f0a70004
:1039a000010007000000060007f0a200cf0037006a
:1039b0002800fa00889fbe008a9fbe008c9fbe0030
:1039c00003866b00100807006400e1004400320029
:1039d0006408e1004a0032006100e1004600320064
:1039e0006108e10049003200ec0647006000b800c1
:1039f0003d02be003d03be00f48657006011b800d2
:103a00003d04be003d05be007d0320000b003700d5
:103a10000000a0008d06e9001300320004024200fd
:103a200085824a0006034b0087834b00000040005c
:103a30008180480002014900838149000802520048
:103a400089825a000a035b008b835b00f0ff3b0016
:103a50000802420089824a000a034b008b834b0014
:103a60008d06e900edff3a008482720086827200c2
:103a7000f707b200878272000100320015002000b3
:103a80001e0490003e0b900006035400e63fb00079
:103a90000368a300070032000000a7000500a00093
:103aa0008301d1000281d3008180d3000080d30044
:103ab0000603e8008301d1000281d3008180d30096
:103ac0000080d3000002eb000482d200e707070069
:103ad00003f0a1000cf0a70003f0a000de07370000
:103ae000640247006408e100d80732003400be00d9
:103af0003401be00f6ff37006108e100d307320051
:103b00006011b8006000b800f1ff370003ff270024
:103b100002002000fbff37002800fa00889fbe004b
:103b20008a9fbe008c9fbe0003866b00b60707000d
:103b30000028a30064003a000128a30067003a00af
:103b40000008a30062003a000108a30065003a00e3
:103b50001e009000be08900081064000ed3fb100bd
:103b6000f4805700ee019000111ab8008e09900001
:103b7000311bb8009e099000311cb800511db800df
:103b8000f485570046000700fe0190003a00070048
:103b90008b85e8003e0007008e099000400007007a
:103ba000ee019000340007008b85e8003800070024
:103bb0008e099000400007009e0990001b18b80075
:103bc000890440000a854800fe0190003400070087
:103bd0008b85e80038000700ee01900030000700f8
:103be0008e0990001b18b800890440000a8548001f
:103bf0000a98a30008003a000402420085824a00a5
:103c000006034b0087834b0008044c0089844c005a
:103c10000a054d008d06e90084827200850273005a
:103c20004c3add00850272000100320015002000d0
:103c3000443ade001400b2004538de00cb45dd001a
:103c40000b007000c540de00cb4ddd008b807000a6
:103c50004549de00cb55dd000b017100c551de008a
:103c60000d0378008107070003f0a1000cf0a70006
:103c700003f0a000780737001b18b8008502400049
:103c800006834800e0834b0060044c0007003700c7
:103c90001b18b8000603400087834800faff37006e
:103ca0001b18b8008703400008844800e0844c00db
:103cb00060054d00000006001b18b8000804400015
:103cc00089844800faff37000108a3005f073a0023
:103cd0005800be005801be00e3ff37000008a300f3
:103ce0005a073a0009047800f9ff37002800fa0063
:103cf000889fbe008a9fbe008c9fbe00070678008a
:103d0000878669000c003b00030478008704780074
:103d100008f0a10009f0a100840f5000858f580021
:103d2000860f5900890f5c00030033000cf0a200dd
:103d300001003a000cf0a100330707006400e10025
:103d40005f003200780147006408e1006100320042
:103d50006c014700748557003200be001201be009e
:103d60003a04be001a05be001e039000be0a900071
:103d70008503530006003d000004fd008104fd00a2
:103d80000205fd008305fd008703ea0005037800b6
:103d90000df8a3000400320060041400e0841c004d
:103da00060051d00e0851d006022b8007d03200035
:103db0000d38e1008006eb000b0039004433dd00d4
:103dc000f300b2008301730039003700848272006f
:103dd0000d027800e10664008b85d1000a85d300ce
:103de0008984d3000884d3008703e900f7ff3b00f0
:103df00008004000898048000a0149008b81490081
:103e000004003b0060001000e08018006001190011
:103e1000e08119000358a300090032008d8272006e
:103e200084827200610260008301d1000281d300ac
:103e30008180d3000080d3000603e8001b00370018
:103e40000348a30017003a000600e0001700340002
:103e50000603e9000d00a30000004800818048002f
:103e600002014900838149000348a3000f003a0082
:103e70000600e000090034000603e90000004000ed
:103e800081804800020149008381490001003a0015
:103e90000003eb000348a300f5ff32006022b800e6
:103ea000020037008482720061826600ef0607001c
:103eb00003f0a1000cf0a70003f0a000e606370015
:103ec000640147006408e10002003a000df8a30015
:103ed000de063a003200be001201be00de063700e8
:103ee000140020000d0737000002eb000b0737001d
:103ef0001400fa00889fbe008a9fbe008c9fbe00ff
:103f00000004be000205be00680047000a90be0023
:103f10000890be00ae0707000078a3003d003a00fd
:103f20006100e1003c0032000bf8a3003d003a00c4
:103f30006400e100380032006c0347001e0090006e
:103f4000f03fb1003602be001603be000008a30019
:103f5000040032000402420085824a0006034b003e
:103f600087834b00100798008e1f78006000b80010
:103f70006011b8005c0020006d0120006e00200080
:103f8000020037008d86e900fc0020000402420098
:103f900085824a0006034b0087834b0000044000e3
:103fa0008184480002054900838549006060e10082
:103fb0001d60ad000804520089845a000a055b00a8
:103fc0008b855b00030039001e60ad000802be0057
:103fd0000a03be000c06e900ecff3b000e87e90077
:103fe000e8ff3b004f077800610260008402780020
:103ff0008301d1000281d3008180d3000080d300ef
:104000001e03900041b3de00f63fb00097060700a4
:10401000910637000b30a0000800be000a01be0068
:104020008d0637001202200052998800870637005b
:104030000800fa00889fbe008a9fbe008c9fbe00c9
:104040000004be000205be00830678008707070053
:104050006420e100a3003e00a60032000006eb0051
:104060000bf0a10003ff2300020020006000b80055
:104070000802be000a03be00ed00070009003d0073
:1040800003ff2300020020006000b8000802be0009
:104090000a03be0046fe07000004be000205be0083
:1040a0002c00200013fd230042612200e1e92500dd
:1040b00060d52c000802be000a03be00dc00070029
:1040c0001d003d00b3ff2300a2672b0081852e0059
:1040d000a0ca24000802be000a03be0003ff0700b6
:1040e000009fbe000297be0073fe230052cf260041
:1040f000010b2d00509529000802be000a03be00e6
:1041000085fe070007ff2300060020006022b8009c
:1041100025fe07000802be000a03be00f3fe0700ea
:104120003e02be002e03be0021fe07000004be00ba
:104130000205be000c06e8000800be000a01be0031
:1041400003f0a10067e42300e6092a00f5672600d2
:10415000d4bc23006c0007000800be000a01be00aa
:104160004c0035000802be000a03be006afe0700cc
:10417000009fbe000297be00e702240096c4200004
:10418000a5142e0004712c00d8fe07003e02be00cc
:104190002e03be0060fe0700d7042400a6a02c005a
:1041a000d5202300743d2a00d0fe07003e02be0049
:1041b0002e03be0058fe07005705240026a1280044
:1041c000b540200054da2600c8fe07003e02be00bb
:1041d0002e03be0050fe070047042400c6872800b7
:1041e00045cc2b00945a2900c0fe0700809fbe00da
:1041f000829fbe003e00be002e01be00a7fe2b0027
:10420000a6d72c00159b2d00d47b280042fe07006a
:1042100007022c00f6d32f00d5c8250034a62600af
:10422000b2fe07003e02be002e03be003afe0700ab
:1042300047032c00f6172800259e2b00b4cc2b003a
:10424000aafe07003e02be002e03be0032fe07009b
:10425000b7022c00660a26006510250024ce210036
:10426000a2fe07003e02be002e03be002afe07008b
:104270004f03be004f02be00cdfd07000802be0086
:104280000a03be0024fe07000802be000a03be00a7
:1042900096fe07000c00e0000f0032000c10a70093
:1042a00003f0a20084d1220045442500b61f22005d
:1042b00097ff23006260e1000600320064362700a9
:1042c000d582230026152c0007fe23000c10a70022
:1042d00007ff230085fe07000df0a70003f0a200f2
:1042e000dd0537000330a000140220005499880037
:1042f000d905370093ff2300b21f22004144250057
:1043000080d12200f4ff37008f1fd100e90607009b
:104310008f87e9000000e000000006004f89de0002
:10432000820178000c073700340020004107370075
:104330001400fa00889fbe008a9fbe008c9fbe00ba
:104340000004be000205be00680047000a90be00df
:104350000890be009e0607000070a7000bf0a100a9
:10436000304320009e02900080825200b0fe2f0059
:104370000028e10011003d00b0fc2f000028e10002
:10438000150034001e0990008e0890007e009000f9
:104390000501b0000201d1008180d3000080d3006c
:1043a0008502e800fbff3a000b00e000aa053b0095
:1043b00060001000e0801800a7053700f0ff2f0014
:1043c000f1ff27000b00e000a3053b0001002800df
:1043d00000002000a00537006000b8009e053700ef
:1043e000839f68000100e00002003d0060001000b3
:1043f000e08018000300e00002003d0060011100b1
:10440000e08119002c0507004f00e00002003b008e
:1044100060001000e080180000000600801feb0024
:10442000a40607008f87e9000000e00000000600f6
:10443000809feb009f0607008f87e9000000e000e7
:10444000000006000800fa00889fbe008a9fbe0098
:104450008c9fbe000004be000205be00830607005c
:104460006420e1007c053e008a00320067082400d9
:1044700026e42200a5ef2f00f49e2300ecff0700a6
:104480007a003c000800be000a01be0077082c003c
:1044900056382400d5462400341c27009aff070014
:1044a000780035000800be000a01be0003f0a1003c
:1044b00007c923000600200005002000040020009a
:1044c00091ff0700710035000800be000a01be0020
:1044d00077ff230076542100b5522600e42f2800f0
:1044e0008dfd070007fe2300060020006022b800b3
:1044f00003f0a70007f0a000fcfd07008cff0700f9
:104500000006be0085ff070003f0a200009fbe006a
:104510000297be0067fe2300060023006022b80059
:104520007dfd07000802be000a03be00effd070084
:10453000809fbe00829fbe003e00be002e01be00d6
:10454000b7f22b0006012d0015c6250084ca2000f5
:1045500071fd07004f03be004f02be00e3fd0700e0
:10456000809fbe00829fbe000002be000203be000c
:1045700069fd0700009fbe000297be0017ef2300f1
:10458000462a250085f52600c4c12d0062fd0700de
:10459000c7f72300460e270035fb2600046e2f00c8
:1045a000d2fd07003e02be002e03be005afd0700ea
:1045b00007fd230006002000050020000400200065
:1045c000cafd07004f03be004f02be0052fd0700a8
:1045d000809fbe00829fbe003e00be002e01be0036
:1045e00007f4230096f92300e5fd260094802300bc
:1045f00049fd0700c7fa2300e61827002514270005
:10460000341b2500b9fd07003e02be002e03be008c
:1046100041fd070007fe23000600200005002000e2
:1046200004002000b1fd0700ffbb97006fbb97009f
:10463000dfba97004fba9700dbfc07000002be000c
:104640000203be004f01be004f00be00d8fc0700b1
:1046500007fe2300060020006022b800a3fd07002b
:104660006102460032070700fb04370003ff270002
:1046700022022000529988000001eb006000b8007f
:10468000f50437008001eb00f9ff370003ff23003a
:10469000f9ff370003f8a300ef0432008001eb00bc
:1046a000f5ff37000800fa00889fbe008a9fbe0011
:1046b0008c9fbe00ed0507006420e100e6043e008b
:1046c00003f0a100e40432000d0020004b070700b6
:1046d000e10437000800fa00889fbe008a9fbe00f0
:1046e0008c9fbe000004be000205be00df0507006f
:1046f0006220e100d8043a0003f0a10007ff230084
:10470000060020006022b800fffe07000800be007f
:104710000a01be0003f0a100050034000d002800ce
:10472000360707000bf0a70003f0a200ca04370009
:1047300067e42300e6092a00f5672600d5bc2300bc
:10474000f1fe07000800be000a01be00c2043500e9
:104750000802be000a03be00effc0700009fbe0077
:104760000297be0017072c0036bc2500951c2800b8
:1047700024ff27005dfd07003e02be002e03be00a1
:10478000e5fc0700170e240076852a00653b220011
:1047900074ec250055fd07003e02be002e03be004e
:1047a000ddfc070007142c00e6ac2100e50b280017
:1047b000347126004dfd0700809fbe00829fbe0021
:1047c00097fe2b00764e2400f5862b00b4812c003a
:1047d0003e00be002e01be00cffc070047062c00a5
:1047e0001684270055382600a4e42b003ffd07005f
:1047f0003e02be002e03be00c7fc0700670c2c0063
:10480000265c290045692b000449210037fd07007b
:104810003e02be002e03be00bffc070057112c0055
:104820003691270035652500944123002ffd0700b0
:104830004f03be004f02be005dfc07003e02be00fb
:104840002e03be00b4fc07000802be000a03be002f
:10485000b1fc07000802be000a03be0023fd0700ea
:104860007d0437000000fa00889fbe008a9fbe00ca
:104870008c9fbe000404be000605be007b05070039
:10488000040678000c78a30020003a000800fd0020
:104890008900fd000a01fd008b01fd007305070082
:1048a000840678000d78a30018003a000d06660013
:1048b0006460e100190032006160e100170032001d
:1048c0000002be000203be000a01be000800be00d6
:1048d0000704780036fc070003f0a100d4fd0700b0
:1048e00008f0a6000600370003f0a200970024009d
:1048f000b61f22004544250084d12200fbfc07009e
:104900000bf0a70003f0a2005304370018022000a8
:10491000589988000330a0004f0437001802200087
:1049200058998800490437000800fa00889fbe00a3
:104930008a9fbe008c9fbe004c0507006420e100ea
:1049400045043e006220e10003003200870035008c
:1049500003f8a3004004320003f8a30087003a00e4
:104960000e027800d90607001e0678000004be007b
:104970000205be007a0007000bfc0700009fbe0086
:104980000297be000800be000a01be0067fe2300b9
:10499000e6092a00f5672600d4bc2300a4fe070020
:1049a000090034003e00be002e01be006c0007006e
:1049b000fdfb0700009fbe000297be000800be007e
:1049c0000a01be00030037000c06e9003e00be00ed
:1049d0002e01be00620007004ffc070060000700c8
:1049e000c2fc07000002be000203be003e00be0083
:1049f0002e01be00eefb07000004be000205be0053
:104a00000002be000203be0043fc0700009fbe0080
:104a10000297be0017042c0006582d0075b624001e
:104a2000f4e02c00b1fc07003e02be002e03be00e5
:104a300039fc0700370724003608280055a12f004d
:104a4000e4672200a9fc07003e02be002e03be0060
:104a500031fc070087082c00e6bf2000d5c02900e4
:104a600074072900a1fc0700809fbe00829fbe0042
:104a700097fe2b005641240065352b0094d22b0065
:104a80003e00be002e01be0023fc070007032400e9
:104a9000a624260065012200d4fe2a0093fc07000c
:104aa0003e02be002e03be001bfc070007052c00c3
:104ab000f67f2000352b2100a4592b008bfc07002a
:104ac0003e02be002e03be0013fc07004f03be00d3
:104ad0004f02be00b6fb0700009fbe000297be005b
:104ae0000802be000a03be000bfc07000802be005d
:104af0000a03be007dfc07000004be000205be00e4
:104b00006160b90005fe0700009fbe000297be006d
:104b1000b7f22b0006012d0015c6250084ca20001f
:104b2000fdfb07000802be000a03be006ffc070081
:104b30000004be000205be003e00be002e01be0005
:104b400067fe2300060023006022b800f2fb070086
:104b50000802be000a03be0064fc0700be03370063
:104b600007fe23006022b8000600050003ff2f00a7
:104b7000020020006000b800b703370010022000d8
:104b800050998800b10337000800fa00889fbe00e2
:104b90008a9fbe008c9fbe000004be000205be00be
:104ba000b20407006420e10099003e009500320045
:104bb00003f0a100171a240036582c0005a021008c
:104bc00004002000d0fd07000800be000a01be005e
:104bd0000700350097002400b61f22004544250039
:104be00084d12200560607000004be000205be0064
:104bf00047fe230006f3250095dc260034882c00b0
:104c0000c5fb070007fe2300060020006022b80055
:104c100003f0a70007f0a00034fc0700c4fd070064
:104c2000801f7800bdfd070003f0a200009fbe00ba
:104c30000297be0097ff2300060022006022b80002
:104c4000b5fb07000802be000a03be0027fc0700f0
:104c5000809fbe00829fbe003e00be002e01be00af
:104c6000f7f3230046542b00152d2400a4462800fa
:104c7000a9fb07004f03be004f02be001bfc07004c
:104c80000004be000205be0003f0a10067e423009b
:104c9000e6092a00f5672600d4bc2300e4fd0700de
:104ca00004003d0003ff2300020020006000b80064
:104cb000480037000800be000a01be000002be0026
:104cc0000203be0094fb0700009fbe000297be00d7
:104cd00027ef2b0076ab2b0025ea220044722c0034
:104ce0008dfb0700c7f6230026e82000b5632a00e5
:104cf000f4ad2a00fdfb07003e02be002e03be00fd
:104d000085fb070017fc2b00562b2100d5542e00e5
:104d100004902000f5fb07003e02be002e03be00fb
:104d20007dfb07000802be000a03be007afb0700f5
:104d30000802be000a03be00ecfb07000004be0030
:104d40000205be003e00be002e01be0007ea2300a1
:104d500046772b0065072f00948e27006efb070017
:104d600047f32b0046f62600959029001484240072
:104d7000defb07003e02be002e03be0066fb0700fe
:104d8000a7f92300e6792400e5172a0094152200ec
:104d9000d6fb07003e02be002e03be005efb0700ee
:104da000d7fd2b0006eb2d00b57f2400549d2d0070
:104db000cefb07003e02be002e03be0056fb0700de
:104dc00007ff23000600200005002000040020004b
:104dd000c6fb07000802be000a03be004f00a60083
:104de0000200370007f0a200040037000002fd00b7
:104df0008102fd000203fd008303fd00ecfa0700c1
:104e000015033700f3ff2700f2ff2f006110b900f0
:104e10000330a00014022000549988000e033700cc
:104e200004002000830437001400fa00889fbe00ad
:104e30008a9fbe008c9fbe000004be000205be001b
:104e4000680047000a90be000890be00e00307001b
:104e50000070a7000bf0a1000bf8a30016003a00a9
:104e60009e0290003043200080825200b0fe2f004e
:104e70000028e1000d003c00b0fc2f000028e100fc
:104e80000d0034001e0990008e0890007e009000f6
:104e90000501b0000201d1008180d3000080d30061
:104ea0008502e800fbff3a00eb0237000100280012
:104eb00000002000e80237006000b800e60237007a
:104ec0001e00fa00889fbe008a9fbe008c9fbe0015
:104ed0000404be000605be00009fbe000297be008f
:104ee000e2030700040678000800be000a01be00c5
:104ef000de03070084067800040020007e0207001d
:104f000005003a008d02b300140020007a02070069
:104f100001003a00f8866e000802be000a03be00d7
:104f2000f90007003e00be002e01be00ca0232009a
:104f30000bf0a7000de0a00003f0a7000df0a0000b
:104f40000d08a300d6003a003e02be002e03be00ac
:104f500007f0a10037079800eb0007000df0a6004e
:104f6000cf00320001003c000dd0a0008d4f760034
:104f7000b60233006000b8006011b8006260e10062
:104f8000c9003900d1003e000d28a300d2003a002c
:104f90000df8a300080032000d58a300d80032001d
:104fa0003e02be002e03be00d70007003e00be003a
:104fb0002e01be00c00032003e00be002e01be0029
:104fc0006a02470041050700009fbe000297be002d
:104fd0000df0a7000d30a6000df0a1006d079800a0
:104fe00067fe2300e6092a00f5672600d4bc2300eb
:104ff000c5fc070009003d003e00be002e01be00ba
:1050000014002000ca0407005e029000009fbe004a
:105010000297be000402e900540798005e00900069
:105020006100b900bdfc070070079800010f9800ef
:10503000120f9800230f98000802be000a03be005a
:10504000b5fa0700bafc07000006be000100e00048
:1050500002003d0060001000e0801800f2ff270011
:10506000820f5000e08f580083003e000c00be000d
:10507000aafc0700300f9800410f9800520f9800cb
:10508000630f98000800be000a01be00a8fc0700dc
:1050900040079800f23f2000820f5000e08f580038
:1050a00005003c0012c02f00f3ff2f00820f5000bc
:1050b000838f58000a003d005e0690000c00e0005f
:1050c0000300320001003c000201ea000206780001
:1050d0006000b8006011b800400798002700370052
:1050e0000800be000a01be00411add004522de00b4
:1050f000f43fb1008400b100ff010700809fbe00b3
:10510000829fbe007e0290008e0a90001e0b9000cf
:10511000ae0b900080fa07003e0a9000ce0a900085
:105120005e0b9000ee0b90001ffa07004f03be00cd
:105130004f02be00809fbe00829fbe000800be00de
:105140000a01be0018fa07007e0290008e0a900045
:105150001e0b9000ae0b90006ffa07004f03be00cd
:105160004f02be00e1fa070067fe230026e422009a
:10517000a5ef2f00f49e230067fa0700809fbe0072
:10518000829fbe004e0090006100b90063fc0700e2
:1051900003f0a2000802be000a03be00d3fa070013
:1051a000809fbe00829fbe003e00be002e01be005a
:1051b000ddfd07004f03be004f02be0056fa070098
:1051c0004f03be004f02be00c8fa07009dfc070057
:1051d000809fbe00829fbe004d000700ce0690005b
:1051e0000df0a7008d06ea00090037003e00be0062
:1051f0002e01be003e02be002e03be0046fa07008e
:10520000009fbe000297be000800be000a01be005b
:105210003e02be002e03be000d00a7003efa0700ae
:105220000004be000205be008d06d100efff3a006b
:105230006e02900004e0a600060037000002be00e7
:105240000203be0032000700d9f907000004be00c7
:105250000205be004f03be004f02be002efa07003b
:105260000c02780032040700ee0690000df0a70053
:1052700003f0a200f8013700ee06900029000700b5
:10528000260007000dd0a7000dc0a0000de0a7006c
:105290000dc0a2000dc0a60003002000f2ff3700e1
:1052a0001b000700ec0137000bf8a30002003200de
:1052b0001e000700190007000df8a300e6013200e8
:1052c0000d30a70003f0a200e30137000bf8a300a4
:1052d000f9ff3a00f7ff37003e02be002e03be0082
:1052e00009000700eeff320001003c000bf0a200b5
:1052f0000a0007000bf0a60003002000d6013700cb
:105300000a000700d101370001000700fefb37004b
:1053100003ff23006000b8000200050003ff270020
:10532000fcff37002002200001003700100220009f
:1053300050998800000006005f0107000400be00cd
:10534000000006001400fa00889fbe008a9fbe007d
:105350008c9fbe000005be000206be00680047002c
:105360000c90be000a90be00990207006400e100a4
:105370001a00320016003e006100e1001a003200ff
:105380006e049000fe0490000e0b90009e0b9000a7
:105390006011b8009e0590000b38b100d5012000c7
:1053a00082817100610164008703d1000683d3000c
:1053b0008984d3000884d3008502e900f8ff3a000d
:1053c000630407000df0a70001f0a000a201370060
:1053d000f1ff2700f0ff2f009f01370001f82700a1
:1053e00000002000f7ff37006000b800f5ff37002d
:1053f0000001be007c0407000470a70003f0a100b8
:105400006509b100160032000d0035006828e10082
:1054100006003500f0ff2f00f1ff27000300e00039
:1054200013003b00010028000000050000004000c0
:10543000818048008502e900fcff3a00080037003f
:10544000f88f420002003c008000eb0000000500e5
:105450008100d1000080d3008502e800fcff3a0003
:105460000300e00002003b0060001000e080180034
:1054700000000600889fbe008a9fbe0001057800dc
:105480000100e0000400350008003c000000e000de
:10549000200032000500370060001000e080180096
:1054a00002003b0001f02c001a0037000004be008f
:1054b0006011b8006b0920000982cf00020039009a
:1054c0000882cf000441b000694252000e00320051
:1054d00008003b0082817100610164008904d100f1
:1054e0000884d3008b05e8000442e800f9ff3a0085
:1054f000050037000804440089844c008b05e9004e
:105500000442e900fbff3a00110407000af0a7007b
:1055100001f0a0004f05be004f04be0000000600d1
:105520001400200045043700810378002e04070092
:105530000001be006000b8000478a30013003a0028
:105540006220e10015003e000d0039008301d1000a
:105550000281d3008180d3008301d1000281d30076
:105560008180d3008301d1000281d3008180d300e8
:105570000538b000c42add00f300b2008381720058
:1055800007f0a70003f0a00000000600f3ff2700cb
:10559000f2ff2f006110b900fbff370003ff270067
:1055a000f7ff37000400200024043700889fbe0066
:1055b0008a9fbe008c1f78003b0407004204330022
:1055c00003866c006450e100240032006420e10096
:1055d000270032006150e100220032006120e1002a
:1055e000210032008b854200eb07b1000134b80086
:1055f000003ab8000804420089844a00013ab80021
:105600000030b8008880400009014a0004003300df
:105610000000400081804800020149008b05e9003c
:10562000c909dd0083017000010032001300200071
:10563000c814de004814dd004709de001200b20085
:10564000c808de0008847000c103070001f0a10053
:105650000cf0a70001f0a000240437006120e10055
:10566000260432000801be000200be00f7ff37002a
:105670006150e100fcff3a002004370003f0a20073
:10568000889fbe008a9fbe008c1f7800060407001a
:105690000d0433006450e1004f0032006420e1004b
:1056a0005200320003826c0007003b000905d00065
:1056b0000306d000820f54000c065d000200390082
:1056c00002003200890178000306780085825500c7
:1056d00004003d000003fd008103fd008502ea0097
:1056e0008b854200840f720002003b0060001000b6
:1056f000e08018006011b8000005eb007a28e10096
:105700000a00390006007800c75ddd00f707b20027
:10571000878075002d003700828171000a017800b2
:10572000610560008180d1000080d3008502e9001e
:10573000f9ff3b00060440008784480002003b005c
:1057400060041400e0841c000988a30007003200f4
:105750008a81710082817100610164008904d10035
:105760000884d3008b05e800170037000978a300f0
:1057700013003a000b00e000130034008b05e90031
:105780000804440089844c000a4474000978a3008a
:105790000d003a000b00e000070034008b05e90023
:1057a0000804440089844c0001003a000b002000ea
:1057b0000978a300f7ff32000001eb000200370078
:1057c000828171000a017800610307000cf0a700d4
:1057d00001f0a000c50337006420e10002003a0098
:1057e000838f6c00c50333000801be000200be00b9
:1057f000be0337001400fa00889fbe008a9fbe00d7
:105800008c9fbe000004be000205be006800470079
:105810000a90be000890be006d0107000070a7004e
:105820000bf0a1000bf8a30020003a009e099000a5
:105830000e099000fe0090006e0090009e02900005
:105840003443200084825200830032000a003c006e
:10585000b4fc2f000428e100140034008301d100bf
:105860000281d3008180d3000080d3008502e8004c
:10587000faff3a0078003700b40020000428e10065
:1058800007003c0000004000818048000201490000
:10589000838149008502e900faff3a006e00370073
:1058a0000300280002002000010037006011b8004a
:1058b0006000b800680037006022b80006022000cf
:1058c0000000d0008180d2000482d2008582d20004
:1058d0000000a0000202520083825a00030031003f
:1058e0000202420083824a000000a1000603e90090
:1058f000f3ff3a00000006001400fa00889fbe0083
:105900008a9fbe008c9fbe0004067800e802470014
:105910008292be008092be00050078002c01070034
:105920006200e10033003a006000b8006011b80086
:105930001e0390000c035300f63fb1002200350017
:105940004b0320000b30e1002a003d00fb0120004a
:10595000faff2f006154b9006c0147008b05d1009c
:105960000a85d3008984d3000884d3000603e900a4
:10597000faff3b003200be001201be0000026400cc
:105980008182640002036500838365000502720062
:105990000602720007027200160032000884ea0054
:1059a0008984ea000a85ea008b85ea000000640029
:1059b0008180640002016500838165006022b80077
:1059c0001e03900029000700de03900007f0a700e7
:1059d00003f0a0000082eb000400e0008e029000c3
:1059e0004f06be004f05be004f04be000080fa0007
:1059f0000000060064014700040020003200be00e1
:105a00001201be00f4ff3700680447000294be0094
:105a10000094be00fc0447008694be008494be003f
:105a200009007800ea00070008007800e800070095
:105a300099007800814f70000b003b000800be0009
:105a4000310307004f00b10003003700f3ff2700c8
:105a5000f2ff2f006110b9004f06be004f05be00d7
:105a60004f04be000080fa0000000600180020006d
:105a700057002000080453000d003d0006002000e0
:105a800097fc2f000740e1001e0034008482720062
:105a9000610260008301d1000281d3008180d300c4
:105aa0000080d3000804e800f8ff3a004700200017
:105ab0006104600005047400040464000d003200f9
:105ac00061004000e080480060014900e081490039
:105ad00003b8a500070032000603e8006538e100be
:105ae00004003a008301d1000281d3008180d300f9
:105af0000080d300f87f20000830e100030035006b
:105b0000080378006000b8006011b8004433dd007d
:105b1000f300b20083017300000006000800fa00e1
:105b2000889fbe008a9fbe008c9fbe00040678003e
:105b30000004be000205be00cc0007006420e100a6
:105b40009f003e009b0032006120e1009600320081
:105b500003f0a100171b240036582c0005a02100db
:105b600004002000e8f907000800be000a01be009a
:105b70000700350097012400b61f22004544250088
:105b800084d122006e0207000004be000205be00a0
:105b90008006eb000c00a700cf1ede0003f0a10082
:105ba0000bf0a10047fd230006f3250095dc26003d
:105bb00034882c00d8f707006022b8000003eb00ff
:105bc00007fe23000c00a60007ff230047f807008c
:105bd000d7f907000000a7000d00a200cff90700c9
:105be0000c00e00004003a0007fe2300060020003d
:105bf0006022b8006cf7070003f0a200009fbe000f
:105c00000297be0097002400060022006022b80020
:105c1000c1f707000802be000a03be0033f8070000
:105c2000809fbe00829fbe003e00be002e01be00cf
:105c3000f7f4230046542b00152d2400a446280019
:105c4000b5f707004f03be004f02be0027f807005c
:105c50000004be000205be0003f0a10067e42300bb
:105c6000e6092a00f5672600d4bc2300a6f9070040
:105c70000800be000a01be00480035000002be0058
:105c80000203be00a4f70700009fbe000297be00fb
:105c900087ce2300f60f28003599260054f92d00f1
:105ca0009df70700a7d62b0006422e0085c02d00c9
:105cb000c49924000df807003e02be002e03be006a
:105cc00095f7070067de2300c6232100a58626007e
:105cd00004432d0005f807003e02be002e03be005f
:105ce0008df70700a7e52b0056642e00d5b52400dc
:105cf000b40a2c00fdf707003e02be002e03be00d2
:105d000085f7070077ec230036de210045522a0094
:105d100034062f00f5f707003e02be002e03be003a
:105d20007df70700a7f22b00061a200015a021001e
:105d3000a4e12300edf707003e02be002e03be00e3
:105d400075f7070017f8230016112100151121001f
:105d5000040b2100e5f707003e02be002e03be0043
:105d60006df7070057fc2b005655250055552500ab
:105d700054552500ddf707003e02be002e03be008d
:105d800065f707000802be000a03be0062f70700bd
:105d90000802be000a03be00d4f707000d00a700ea
:105da00003f0a2002cff37000c00a60003ff230025
:105db00029ff3700f3ff2700f2ff2f006110b90021
:105dc0000330a000140220005499880022ff3700fd
:105dd000800078005002be005003be004439de004f
:105de000f700b200f37f20000301610009003200d8
:105df0000218e10016003a00850172008301730069
:105e0000838173000008200015003a004000200044
:105e100013003700850172008301730083817300d2
:105e200005003a0004a8be0006a8be00100020002d
:105e30000b0037000201e9000402420085824a009b
:105e400006034b0087834b000748a300f9ff32008d
:105e50000740a00004a8be0006a8be002000200045
:105e600080009800920098000000060005ff2700bf
:105e700005826100070032000428e10001003200c1
:105e8000240005000600070001003a004400050058
:105e90000408050002000700f9ff3a00140005009d
:105ea0006f826100810270008502710085027200bc
:105eb00000000600889fbe008a9fbe008c9fbe0027
:105ec0000404be000605be00809fbe00829fbe0087
